S01400004D616E6970756C61746F72322E7372656352
S11300005CC000006FC4000081C4000067C0000031
S113001065C0000063C0000061C000005FC0000054
S11300205DC000005BC0000059C0000057C0000064
S113003055C0000053C000009EC600004FC0000021
S11300407FC400004BC0000049C0000047C000004E
S113005045C0000043C0000041C000003FC0000094
S11300603DC000003BC0000039C0000037C00000A4
S113007035C0000033C00000EDC200002FC00000F6
S11300802DC000002BC0000029C00000084AD73B47
S11300903BCE016E84BCBFFDC12F3D6C74319ABD53
S11300A056833DDA3D00C77F11BED9E4BB4C3E9177
S11300B06BAAAABE000000803F0011241FBECFEF30
S11300C0D0E1DEBFCDBF21E0A0E0B1E001C01D92D0
S11300D0A43BB207E1F7B7D60C94540A91CF82E05F
S11300E082B91BB888E08AB996E090939500109283
S11300F0900089B908955D9BFECF8CB90895FF9255
S11301000F931F93CF93DF93182FF62ED72F042F1F
S1130110C52F8FEFF0DF8FEFEEDF812FECDF87E06D
S1130120EADF83E0E8DF8EE1E6DF802FE4DF8C2F77
S1130130E2DF8F2DE0DF8D2FDEDF88E28F0D800F71
S1130140810F8D0F8C0F8095D6DFDF91CF911F919A
S11301500F91FF90089588E081BB10929B0098E96D
S113016090939A0096E090939D001092980080934B
S113017099000895EBE9F0E0908195FFFDCF80931D
S11301809C000895EBE9F0E080818823ECF78091EE
S11301909C0008954F925F926F927F928F929F92EC
S11301A0AF92BF92CF92DF92EF92FF920F931F9381
S11301B0CF93DF93CDB7DEB766970FB6F894DEBF63
S11301C00FBECDBF7B015E8B4D8B8901BC01990FA6
S11301D0880B990BA8D769837A838B839C83B70197
S11301E0FF0C880B990B9FD76D837E838F83988731
S11301F029813A814B815C81CA01B9010E944B0972
S11302006B017C012D813E814F815885CA01B90162
S11302100E944B099B01AC01C701B60123D62BE711
S113022034E140EC53E41DD625EF38EB47E053E4CA
S113023018D62AE037E544EE53E4DAD64B015C01E4
S11302409B01AC010E944B096B017C01A701960143
S113025060E070E080E89FE304D60E94B2096B017D
S11302607C01A501940171D66D877E878F87988B59
S113027026E636E64AE351E4C501B4010E944B097F
S11302802DEC3CEC4CE951E4EDD569877A878B87FA
S11302909C8726E636E64AE351E4C701B601FBD75C
S11302A04B015C0129853A854B855C85CA01B901FE
S11302B0F2D72B013C01A5019401C501B401EBD790
S11302C09B01AC01C301B201CDD52B013C012985B1
S11302D03A854B855C8569817A818B819C81DBD7EA
S11302E0698B7A8B8B8B9C8BA50194016D817E81AC
S11302F08F819885D0D79B01AC0169897A898B89D4
S11303009C89B0D5A301920173D64B015C0126E60A
S113031036E64AE351ECC701B601BDD729813A81DB
S11303204B815C81B8D76B017C0129853A854B856B
S11303305C856D817E818F819885ADD79B01AC01F1
S1130340C701B6018FD5A301920152D6A50194012C
S1130350FCD523E333E345E652E49DD7ED89FE89DA
S1130360608371838283938323E333E345E652E41A
S11303706D857E858F8598898ED7F801608371831A
S11303808283938366960FB6F894DEBF0FBECDBF0B
S1130390DF91CF911F910F91FF90EF90DF90CF905D
S11303A0BF90AF909F908F907F906F905F904F9091
S11303B008954F925F926F927F928F929F92AF9225
S11303C0BF92CF92DF92EF92FF920F931F93CF933E
S11303D0DF93CDB7DEB766970FB6F894DEBF0FBED6
S11303E0CDBF7B015E8B4D8B8901BC01990F880BBE
S11303F0990B99D669837A838B839C83B701FF0C0D
S1130400880B990B90D66B017C0129813A814B8131
S11304105C81CA01B9013FD74B015C01A701960178
S1130420C701B60138D79B01AC01C501B4011AD587
S11304302BE734E140EC53E414D525EF38EB47E0E7
S113044053E40FD52AE037E544EE53E4D1D54B010C
S11304505C019B01AC011FD72B013C01A30192015C
S113046060E070E080E89FE3FCD47CD72B013C0182
S113047077FA709477F87094A5019401C301B201DE
S113048064D56D877E878F87988B26E636E64AE3A8
S113049051E4C501B401FFD62DEC3CEC4CE951E428
S11304A0E1D46D837E838F83988726E636E64AE31C
S11304B051E4C301B201EFD64B015C012D813E81B1
S11304C04F815885CA01B901E6D669877A878B8737
S11304D09C87A5019401C501B401DDD69B01AC0143
S11304E069857A858B859C85BDD469877A878B8756
S11304F09C872D813E814F81588569817A818B81CA
S11305009C81C9D6698B7A8B8B8B9C8BA5019401BA
S1130510C701B601C0D69B01AC0169897A898B8970
S11305209C89A0D429853A854B855C8561D54B018E
S11305305C0126E636E64AE351ECC301B201ABD6D0
S113054029813A814B815C81A6D62B013C012D8106
S11305503E814F815885C701B6019DD69B01AC01F0
S1130560C301B2017FD429853A854B855C8540D58A
S1130570A5019401EAD423E333E345E652E48BD6A0
S1130580ED89FE89608371838283938323E333E35C
S113059045E652E46D857E858F8598897CD6F80181
S11305A0608371838283938366960FB6F894DEBF6B
S11305B00FBECDBFDF91CF911F910F91FF90EF90B0
S11305C0DF90CF90BF90AF909F908F907F906F906F
S11305D05F904F9008950F931F93CF93DF93EC0197
S11305E099233CF48DE2C6DD8DE2C4DDD195C1953D
S11305F0D109CE0168EE73E00BD704E610E0B80130
S113060007D780E3860FB6DDCE01B80101D70AE033
S113061010E0B801FDD680E3860FACDDCE01B80151
S1130620F7D6805DA7DD8DE0A5DDDF91CF911F9129
S11306300F9108958FEF87BB8FE082B982EA8FBD57
S113064089E18EBD089586E083BF85E087BF83E896
S113065082BF08951F920F920FB60F9211240BB60A
S11306600F92EF92FF920F931F932F933F934F9309
S11306705F936F937F938F939F93AF93BF93CF9326
S1130680DF93EF93FF93C0911E01D0911F017ADD98
S1130690C65BDE4F888320911E0130911F01F90152
S11306A0E65BFE4F8081833529F430931B01209350
S11306B01A01F6C08C3229F43093170120931601E5
S11306C0EFC08F3229F43093150120931401E8C050
S11306D08D3229F43093130120931201E1C0853443
S11306E009F0DEC03093190120931801F901E65B8B
S11306F0FE4F118200911A0110911B01C80101964D
S1130700609116017091170186179707DCF4F801C0
S1130710E55BFE4FC0911C01D0911D01DE01A25684
S1130720BE4FAB01465B5E4F81918D93E417F50795
S1130730D9F7C60FD71F2197C01BD10BD0931D012A
S1130740C0931C01E0911C01F0911D01E256FE4F83
S1130750108210921D0110921C01C0911401D091BD
S11307601501CB0101968C179D07ACF4FB01E55BE9
S1130770FE4FAAE8B1E0AE01465B5E4F81918D93D6
S1130780E417F507D9F7CE010197861B970B9093D1
S11307901D0180931C01E0911C01F0911D01E6579D
S11307A0FE4F108210921D0110921C0160911201E3
S11307B070911301CE01019686179707ACF4FE01E0
S11307C0E55BFE4FA0E2B1E0AB01465B5E4F819179
S11307D08D93E417F507D9F7CB0101978C1B9D0B7B
S11307E090931D0180931C01E0911C01F0911D0167
S11307F0E05EFE4F108210921D0110921C01EB016D
S11308002196D0931F01C0931E01C217D307F4F49D
S1130810FB01E55BFE4FA4E3B1E0A901465B5E4F3B
S113082081918D93E417F507D9F721503109C90156
S1130830861B970B90931D0180931C012C0F3D1F69
S1130840261B370B30931F0120931E01E0911C01DE
S1130850F0911D01EC5CFE4F108210921D0110926C
S11308601C018EE991E0FBD57C018AE891E0F7D583
S11308708C0180E291E0F3D5EC0184E391E0EFD5C3
S1130880F0921101E092100110930F0100930E01F8
S1130890D0930D01C0930C0190930B0180930A0136
S11308A080911E0190911F01019690931F018093E6
S11308B01E01FF91EF91DF91CF91BF91AF919F9175
S11308C08F917F916F915F914F913F912F911F91E4
S11308D00F91FF90EF900F900BBE0F900FBE0F90F3
S11308E01F9018951F920F920FB60F9211248F9399
S11308F09F9381E090E090930901809308019F9178
S11309008F910F900FBE0F901F9018951F920F920A
S11309100FB60F9211248F939F9381E090E09093F0
S11309200901809308019F918F910F900FBE0F9042
S11309301F9018958AE080936A0083E089BF089528
S11309401F920F920FB60F9211240BB60F922F9392
S11309503F934F935F936F937F938F939F93AF9343
S1130960BF93EF93FF9380914801909149010196C1
S1130970909349018093480183E882BF80914801A4
S113098090914901883C910509F0E2C160910E0102
S113099070910F016115710509F540E052E066E9B7
S11309A070E082E090E0ABDB40E052E066E970E0AA
S11309B083E090E0A4DB84E6DDDB85E6DBDB86E632
S11309C0D9DB81E6D7DB85E7D5DB8CE6D3DB84E7AF
S11309D0D1DB1092490110924801A8C116161706DE
S11309E00CF0C6C020E031E044E051E080911001F9
S11309F090911101CFDB84E6BDDB81E3BBDB8DE3AA
S1130A00B9DB609104017091050180910601909118
S1130A10070156D3CB01DFDD84E6ACDB82E3AADB3E
S1130A208DE3A8DB609100017091010180910201C6
S1130A309091030145D3CB01CEDD24EA30E74DE5A7
S1130A4050E4609104017091050180910601909138
S1130A50070121D49B01AC0160E070E080E094E4E4
S1130A6000D22ED3AB0166E970E082E090E047DB70
S1130A708DE680DB81E37EDB8DE37CDB24EA30E7FB
S1130A804DE550E4609104017091050180910601E7
S1130A909091070100D49B01AC0160E070E080E01C
S1130AA094E4DFD10DD3CB0196DD24EA30E74DE5A4
S1130AB050E46091000170910101809102019091D4
S1130AC00301E9D320E030E040E054E4CBD1F8D294
S1130AD0AB0166E970E083E090E011DB8DE64ADB70
S1130AE082E348DB8DE346DB24EA30E74DE550E45E
S1130AF060910001709101018091020190910301C4
S1130B00CAD320E030E040E054E4ACD1D9D2CB01E8
S1130B1062DD80910C0190910D018130910589F481
S1130B204FEF52E066E970E084E090E0E8DA8DE6A9
S1130B3021DB83E31FDB8DE31DDB8FEF92E04BDDD5
S1130B4012C0892B81F442EC51E066E970E084E044
S1130B5090E0D5DA8DE60EDB83E30CDB8DE30ADB74
S1130B6082EC91E038DD1092490110924801DEC018
S1130B7077230CF0DBC020E031E044E051E08091C9
S1130B8010019091110115DC84E6F4DA81E3F2DAC4
S1130B908DE3F0DA60910401709105018091060102
S1130BA0909107018DD2CB0116DD84E6E3DA82E36E
S1130BB0E1DA8DE3DFDA6091000170910101809147
S1130BC00201909103017CD2CB0105DD80910401E7
S1130BD090910501A0910601B0910701BC01CD01DE
S1130BE090586093040170930501809306019093DB
S1130BF0070124EA30E74DE550E44DD320E030E02E
S1130C0040E054E42FD15CD2AB0166E970E082E0AD
S1130C1090E075DA8DE6AEDA81E3ACDA8DE3AADA38
S1130C2024EA30E74DE550E4609104017091050138
S1130C3080910601909107012ED320E030E040E03E
S1130C4054E410D13DD2CB01C6DC809100019091D7
S1130C500101A0910201B0910301BC01CD019058A2
S1130C60609300017093010180930201909303014A
S1130C7024EA30E74DE550E40ED39B01AC0160E07B
S1130C8070E080E094E4EDD01BD2AB0166E970E043
S1130C9083E090E034DA8DE66DDA82E36BDA8DE39B
S1130CA069DA24EA30E74DE550E46091000170917F
S1130CB001018091020190910301EDD29B01AC01ED
S1130CC060E070E080E094E4CCD0FAD1CB0183DC26
S1130CD080910C0190910D018130910589F44FEFC1
S1130CE052E066E970E084E090E009DA8DE642DAE9
S1130CF083E340DA8DE33EDA8FEF92E06CDC12C0DE
S1130D00892B81F442EC51E066E970E084E090E0E4
S1130D10F6D98DE62FDA83E32DDA8DE32BDA82EC34
S1130D2091E059DC10924901109248018DE022DAD9
S1130D30109204011092050110920601109207010D
S1130D40109200011092010110920201109203010D
S1130D50FF91EF91BF91AF919F918F917F916F918F
S1130D605F914F913F912F910F900BBE0F900FBE4B
S1130D700F901F9018951F920F920FB60F92112487
S1130D808F939F938091B2019091B30101969093B8
S1130D90B3018093B201449709F04EC080910A01D7
S1130DA090910B018130910569F488E083B98CE757
S1130DB090E09BBD8ABD99BD88BD1092B30110928D
S1130DC0B2011CC08230910569F484E083B98CE7D8
S1130DD090E09BBD8ABD99BD88BD1092B30110926D
S1130DE0B2010CC0892B51F484E083B91BBC1ABC3A
S1130DF019BC18BC1092B3011092B2018091080181
S1130E00909109010197A1F488E083B91BBA1BBC36
S1130E101ABC19BC18BC10920B0110920A01109252
S1130E200901109208011092B3011092B20104C09A
S1130E3010920901109208019F918F910F900FBE9B
S1130E400F901F9018958CE790E097BD86BD8FEFAB
S1130E508ABB8BBB44D97FD9EDDB6CDDF4DB7894A2
S1130E60FFCF5058BB27AA270ED0D4C1C5D130F02C
S1130E70CAD120F031F49F3F11F41EF495C10EF451
S1130E80E095E7FB8BC1E92FD6D180F3BA1762074F
S1130E9073078407950718F071F49EF5EEC10EF4FC
S1130EA0E0950B2EBA2FA02D0B01B90190010C0176
S1130EB0CA01A0011124FF27591B99F0593F50F48E
S1130EC0503E68F11A16F040A22F232F342F4427E6
S1130ED0585FF3CF469537952795A795F0405395DE
S1130EE0C9F77EF41F16BA0B620B730B840BBAF0AE
S1130EF09150A1F0FF0FBB1F661F771F881FC2F719
S1130F000EC0BA0F621F731F841F48F4879577952C
S1130F106795B795F7959E3F08F0B3CF9395880FE3
S1130F2008F09927EE0F97958795089565D158F0A5
S1130F3080E891E009F49EEF66D128F040E851E0A2
S1130F4059F45EEF09C030C198C1E92FE07873D13C
S1130F5068F3092E052AC1F32617370748075907EE
S1130F6038F00E2E07F8E02569F0E025E0640AC0A9
S1130F70EF6307F8009407FADB01B9019D01DC0176
S1130F80CA01AD01EF9343D045D10AD05F915523F7
S1130F9031F02BED3FE049E450FD49EC63CF089577
S1130FA0DF93DD27B92FBF7740E85FE316161706F6
S1130FB048075B0710F4D92F67D19F938F937F93D2
S1130FC06F930ED2ECE8F0E0F2D024D12F913F9150
S1130FD04F915F916CD1DD2349F09058A2EA2AED3C
S1130FE03FE049EC5FE3D0785D274DDFDF9112C12C
S1130FF00CD010C108D140F0FFD030F021F45F3F95
S113100019F0CCC051113AC1CFC015D198F399232E
S1131010C9F35523B1F3951B550BBB27AA276217B8
S11310207307840738F09F5F5F4F220F331F441FFD
S1131030AA1FA9F333D00E2E3AF0E0E830D0915035
S11310405040E695001CCAF729D0FE2F27D0660F22
S1131050771F881FBB1F261737074807AB07B0E861
S113106009F0BB0B802DBF01FF2793585F4F2AF077
S11310709E3F510568F092C001C15F3FECF3983E7A
S1131080DCF3869577956795B795F7959F5FC9F7D4
S1131090880F911D9695879597F90895E1E0660F5D
S11310A0771F881FBB1F621773078407BA0720F0D6
S11310B0621B730B840BBA0BEE1F88F7E09508953F
S11310C004D06894B111DAC00895BDD088F09F5758
S11310D090F0B92F9927B751A0F0D1F0660F771F80
S11310E0881F991F1AF0BA95C9F712C0B13081F060
S11310F0C4D0B1E00895C1C0672F782F8827B85FA6
S113110039F0B93FCCF3869577956795B395D9F7C0
S11311103EF490958095709561957F4F8F4F9F4FCA
S11311200895E89409C097FB3EF4909580957095D6
S113113061957F4F8F4F9F4F9923A9F0F92F96E91F
S1131140BB279395F695879577956795B795F11194
S1131150F8CFFAF4BB0F11F460FF1BC06F5F7F4F31
S11311608F4F9F4F16C0882311F096E911C0772343
S113117021F09EE8872F762F05C0662371F096E84C
S1131180862F70E060E02AF09A95660F771F881F1B
S1131190DAF7880F9695879597F9089597F99F67D9
S11311A080E870E060E008959FEF80EC0895DF939D
S11311B0CF931F930F93FF92EF92DF927B018C01E9
S11311C0689405C0DA2EEF0172D0FE01E894A5916F
S11311D02591359145915591AEF3EF0154DEFE0111
S11311E09701A801DA9479F7DF90EF90FF900F91BF
S11311F01F91CF91DF91089500240A9416161706C3
S113120018060906089500240A94121613061406F3
S113121005060895092E0394000C11F4882352F056
S1131220BB0F40F4BF2B11F460FF04C06F5F7F4F0E
S11312308F4F9F4F089557FD9058440F551F59F0F5
S11312405F3F71F04795880F97FB991F61F09F3FAF
S113125079F087950895121613061406551FF2CFD8
S11312604695F1DF08C0161617061806991FF1CF28
S113127086957105610508940895E894BB2766274F
S11312807727CB0197F908959B01AC0160E070E0EA
S113129080E89FE3ADCE0BD0BDCFAEDF28F0B3DF47
S11312A018F0952309F07ACF7FCF1124E7CFC3DF5D
S11312B0A0F3959FD1F3950F50E0551F629FF00165
S11312C0729FBB27F00DB11D639FAA27F00DB11DBE
S11312D0AA1F649F6627B00DA11D661F829F222747
S11312E0B00DA11D621F739FB00DA11D621F839FCE
S11312F0A00D611D221F749F3327A00D611D231FA4
S1131300849F600D211D822F762F6A2F11249F57F1
S113131050408AF0E1F088234AF0EE0FFF1FBB1F14
S1131320661F771F881F91505040A9F79E3F5105B3
S113133070F034CFA3CF5F3FECF3983EDCF3869597
S113134077956795B795F795E7959F5FC1F7FE2B5E
S1131350880F911D9695879597F9089511F40EF4C9
S113136023CF41C070DFD0F39923D9F3CEF39F5735
S1131370550B87FF46D00024A0E640EA9001805830
S11313805695979528F4805C660F771F881F20F088
S113139026173707480730F4621B730B840B202988
S11313A031294A2BA69517940794202531254A27DD
S11313B058F7660F771F881F20F02617370748074E
S11313C030F4620B730B840B200D311D411DA0956D
S11313D081F7B901842F9158880F969587950895C0
S11313E09B01AC0158CF9F3F31F0915020F4879579
S11313F077956795B795880F911D9695879597F979
S1131400089591505040660F771F881FD2F70895B2
S113141097FB072E16F4009406D077FD08D00BD066
S113142007FC05D03EF4909581959F4F08957095E3
S113143061957F4F0895AA1BBB1B51E107C0AA1FEA
S1131440BB1FA617B70710F0A61BB70B881F991F61
S11314505A95A9F780959095BC01CD010895FC019A
S113146088279927E89421912032E9F3293010F054
S11314702E30C8F32B3239F02D3231F4689403C086
S11314800BD0820F911D219120532A30C8F31EF4F2
S1131490909581959F4F08957AE0979F902D879F0F
S10F14A0802D910D11240895F894FFCFC5
S9030000FC
